:02000000F928DD
:0E0006008312031321088A00200882000800DC
:1000140083120313FB01FA01F9018030F800F10C9B
:10002400F00C031C1E287408F90775080318750FD3
:10003400FA070318FB0A0310F01F26287408FA07AE
:1000440075080318750FFB07FB0CFA0CF90CF80C78
:10005400031C11287B08F3007A08F2007908F100E8
:060064007808F00008001E
:10006A00831603131208013EF000F1010318F10A86
:10007A0083122208F400F5010A200630F200700803
:10008A00F4007108F500720803195028F50CF40CF5
:10009A00F513FF3E49280430F1007408F000710896
:1000AA0003195B28F00D7010FF3E552883120313C5
:1000BA0030307005F3007408F0007508F100F10C97
:1000CA00F00CF113F10CF00CF11370089B000F30D7
:0800DA009D0573089D04080058
:0C00E200831203139B011D129D120800E5
:1000EE00831603131208013EF000F1010318F10A02
:1000FE0083122208F400F5010A200630F20070087F
:10010E00F4007108F500720803199228F50CF40C2E
:10011E00F513FF3E8B280430F1007408F0007108CF
:10012E0003199D28F00D7010FF3E972883120313BC
:10013E0030307005F3007408F0007508F100F10C12
:10014E00F00CF113F10CF00CF113700895000F3058
:08015E009705730897040800DF
:0A0166000A3083120313860008001C
:10017000831603130711831212150C30970408001D
:0A0180000530831203138600080007
:0C018A008312031395011712971208004E
:10019600831603138710831212150C309D04080072
:0A01A60009308312031386000800DD
:1001B00083160313071583121211F03097050800F8
:0A01C00006308312031386000800C6
:1001CA0003208A110A128000840AA00A0319A10ACC
:0801DA00F003031DE5280800F5
:1001E20083160313871483121211F0309D05080041
:1001F200831603138601FF308800831212149210B3
:10020200633083169200C520121492106330831655
:10021200920071207F30A20077207F30A20035202B
:1002220005308600081C3929B3200B30FB0026302C
:10023200FC005D30FD00FD0B1C29FC0B1C29FB0B97
:100242001C2900000000B820CB20D3200B30FB007B
:100252002630FC005D30FD00FD0B2D29FC0B2D2905
:10026200FB0B2D2900000000D820F120C0205E29C0
:10027200881C5E29B3200B30FB002630FC005D3069
:10028200FD00FD0B4229FC0B4229FB0B4229000019
:100292000000B820CB20E0200B30FB002630FC0011
:1002A2005D30FD00FD0B5329FC0B5329FB0B532939
:0E02B20000000000D820F120C02013295F2991
:02400E004A2F37
:00000001FF
